:020000040000FA
:100000008C018D0108146830990088148D01081442
:10001000881000308C0030308D0008108C018D016C
:10002000F030F3002830F400F30B4128F030F300F7
:100030002830F400F30B4828F030F3002830F400A7
:10004000F30B6228F030F3002830F400F30B69283A
:10005000F030F3002830F400F30B8328F030F30085
:100060002830F400F30B8A28F030F3002830F40035
:10007000F30BA428F030F3002830F400F30BAB2886
:100080001028BC20C620D020DA20E420EE2014283E
:100090007408143C031C5828B220B220B220DA2085
:1000A000E420EE207408031D60282830F4001A288C
:1000B000BC20C620D020DA20E420EE20F4031A2849
:1000C000F4031A28DA20E420EE20162120212A2128
:1000D00020287408143C031C7928B220B220EE209A
:1000E000162120212A217408031D81282830F400BC
:1000F0002628DA20E420EE20162120212A21F403EC
:100100002628F4032628EE2002210C211621202186
:100110002A212C287408143C031C9A28B22002219E
:100120000C21162120212A217408031DA228283021
:10013000F4003228EE2002210C21162120212A2150
:10014000F4033228F4033228F82002210C2116216E
:1001500020212A213828B220B220B220B220B22099
:10016000B2203E280C081139003E8C000D080039E1
:10017000003E8D003421080011308C050D08003937
:10018000073E8D0004308C073421080011308C05A7
:100190000D0800390B3E8D0004308C073421080017
:1001A00011308C050D0800390D3E8D0004308C0790
:1001B0003421080011308C050D080039073E8D00F0
:1001C00008308C073421080011308C050D080039E7
:1001D0000B3E8D0008308C073421080011308C054F
:1001E0000D080039073E8D0010308C0734210800BF
:1001F00011308C050D0800390E3E8D0004308C073F
:100200003421080011308C050D0800390D3E8D0099
:1002100008308C073421080011308C050D08003996
:100220000E3E8D0008308C073421080011308C05FB
:100230000D0800390B3E8D0010308C07342108006A
:1002400011308C050D0800390D3E8D0010308C07E3
:100250003421080011308C050D0800390E3E8D0048
:1002600010308C0734210800C730F1000000000076
:10027000F10B362908001330F100AE30F200F20B1A
:100280003F29F10B3D2900000800AD30F100BF30DF
:10029000F200F20B49290000F10B47290000080089
:0402A00000340034F2
:020000040001F9
:02000E00840963
:02001000FF1CD3
:00000001FF
