:020000040000FA
:100000008C018D01081488148D01081488100030AB
:100010008C0030308D0008108C018D01FF30F30012
:10002000F30B1B28F30B1D28F30B1F28F30B2128C0
:10003000F30B23280E2825201028322012283F20D9
:1000400014284C201628592018288120F4208A20B2
:10005000F4209320F4209C20F420A520F420AE204E
:10006000F42008009C20F420A520F420AE20F420E9
:10007000D220F420DB20F420E420F4200800AE207D
:10008000F420C020F420C920F420D220F420DB206A
:10009000F420E420F4200800B720F420C020F4204D
:1000A000C920F420D220F420DB20F420E420F42026
:1000B00008000C081139003E8C000D080039003E84
:1000C0008D00F420F420F420F420F420F420080023
:1000D0008120FB208A20FB209320FB209C20FB20FA
:1000E000A520FB20AE20FB20B720FB20C020FB205A
:1000F000C920FB20D220FB20DB20FB20E420FB20BA
:10010000080011308C050D080039073E8D000430C1
:100110008C07080011308C050D0800390B3E8D004E
:1001200004308C07080011308C050D0800390D3E95
:100130008D0004308C07080011308C050D08003943
:10014000073E8D0008308C07080011308C050D0823
:1001500000390B3E8D0008308C07080011308C05EB
:100160000D080039073E8D0010308C070800113053
:100170008C050D0800390E3E8D0004308C070800F8
:1001800011308C050D0800390D3E8D0008308C07AC
:10019000080011308C050D0800390E3E8D00083026
:1001A0008C07080011308C050D0800390B3E8D00BE
:1001B00010308C07080011308C050D0800390D3EF9
:1001C0008D0010308C07080011308C050D080039A7
:1001D0000E3E8D0010308C0708001330F100000037
:1001E0000000F10BEF2808001330F10000000000C0
:1001F000F10BF6280800AD30F100BF30F200F20B31
:0C020000FF280000F10BFD2800000800A2
:04020C000034003486
:020000040001F9
:02000E00840963
:02001000FF1CD3
:00000001FF
