:020000040000FA
:100000008C018D01081488148D01081488100030AB
:100010008C0030308D0008108C018D01FF30F30012
:10002000C830F400F30B2628C830F4000E28F30B78
:100030004C28C830F400F30B5928C830F400F30BF7
:100040008028C830F400F30B8D280E283C28740853
:10005000643C031CEB203C21F4203C21FD203C218E
:10006000EB203C21F4203C21FD203C217408031DA1
:100070004A28C830F4001228D0203C21D9203C2145
:10008000E2203C21EB203C21F4203C21FD203C21BE
:10009000F4031228F4031228EB203C21F4203C2125
:1000A000FD203C2121213C212A213C2133213C21DE
:1000B00017287408643C031C7028AE20FD203C21E6
:1000C000FD203C21FD203C21FD203C21FD203C2148
:1000D000FD203C217408031D7E28C830F4001B2835
:1000E000EB203C21F4203C21FD203C2121213C211E
:1000F0002A213C2133213C21F4031B28F4031B2833
:10010000FD203C210F213C2118213C2121213C21B3
:100110002A213C2133213C211F287408643C031C04
:100120009E28AE203C213C213C213C213C213C210D
:100130007408031DAC28C830F4002328FD203C219E
:100140000F213C2118213C2121213C212A213C2145
:1001500033213C21F4032328F40323280C0811390C
:10016000003E8C000D080039003E8D000800D020B4
:100170004F21D9204F21E2204F21EB204F21F420A5
:100180004F21FD204F2106214F210F214F21182102
:100190004F2121214F212A214F2133214F210800B6
:1001A00011308C050D080039073E8D0004308C0796
:1001B000080011308C050D0800390B3E8D0004300D
:1001C0008C07080011308C050D0800390D3E8D009C
:1001D00004308C07080011308C050D080039073EEB
:1001E0008D0008308C07080011308C050D0800398F
:1001F0000B3E8D0008308C07080011308C050D086F
:100200000039073E8D0010308C07080011308C0536
:100210000D0800390E3E8D0004308C0708001130A7
:100220008C050D0800390D3E8D0008308C07080044
:1002300011308C050D0800390E3E8D0008308C07FA
:10024000080011308C050D0800390B3E8D00103070
:100250008C07080011308C050D0800390D3E8D000B
:1002600010308C07080011308C050D0800390E3E47
:100270008D0010308C0708000930F1001130F200B9
:10028000F20B4029F10B3E2908001330F100AE308B
:10029000F200F20B4929F10B472900000800AD30AC
:1002A000F100BF30F200F20B53290000F10B51298D
:0402B0000000080042
:0402B40000340034DE
:020000040001F9
:02000E00840963
:02001000FF1CD3
:00000001FF
